:100000000CEF02F00A54696D65206F7574210000D1
:100010000A436865636B73756D204572726F722158
:1000200000000A53656D2073696E616C0000EA6A16
:10003000140EE96EEF500DE0020E016E006A002E04
:10004000FED7012EFBD7970E006E002EFED7EF2EA7
:10005000F3D7120093988A98190E146EE8DF8A88F5
:10006000130E006E002EFED700D0938821EF02F011
:100070001A0E006E002EFED7000081B810D0340E8C
:10008000006E002EFED700D0000081A808D0200E00
:10009000006E002EFED700D00000010E016E22EF90
:1000A00002F0156A0AA000D0136A135007083EE355
:1000B000146A81B808D0142A1450640802E20A8035
:1000C00002D000D0F6D7130E006E002EFED700D05F
:1000D00081B811D0070ED8801354166E010E006E31
:1000E0001650016E04E0D8900036012EFCD7005067
:1000F000FF0A151619D0070ED8801354166E010E7C
:10010000006E1650016E04E0D8900036012EFCD728
:100110000050151281A808D0142A1450640802E275
:100120000A8002D000D0F6D7132ABFD715C001F03D
:1001300012000900F5520DE0F6CF13F0F7CF14F0DE
:10014000F5509EA8FED7AD6E13C0F6FF14C0F7FFA2
:10015000F0D712001A50016A195C03E219C000F0CE
:100160000CD0006A080E1B6E193600361A50005C5F
:10017000D8B0006E01361B2EF7D71200006A016A54
:100180001A50D8901BB00026003201321BB2002654
:10019000003201321BB40026003201321BB60026A9
:1001A000003201321BB80026003201321BBA002691
:1001B000003201321BBC0026003201321BBE002679
:1001C0000032013250EF01F0186A166A0A0E176EFB
:1001D000156A1350141003E1000E016EC1D01850BF
:1001E000182A036A1324E96E14500320EA6EEFCF35
:1001F00019F019502D080DE1010E166E1850182A2D
:10020000036A1324E96E14500320EA6EEFCF19F04D
:100210000DD019502B080AE11850182A036A13242C
:10022000E96E14500320EA6EEFCF19F019502F0831
:10023000D8B08ED019503908D8A08AD019503008BB
:1002400021E1036A18501324E96E14500320EA6E6A
:10025000EF5078080AE0036A18501324E96E14502E
:100260000320EA6EEF5058080DE1100E176E182AA1
:100270001850182A036A1324E96E14500320EA6EFA
:10028000EFCF19F017500A081BE119502F0817E299
:100290001950390814E30A0E1A6E15C01BF06ED7F8
:1002A000300E195C0124156E1850182A036A1324A5
:1002B000E96E14500320EA6EEFCF19F0E6D748D06C
:1002C0001750100845E11950600806E219507A08E5
:1002D00003E31950DF0B01D01950196E19502F0884
:1002E00003E21950390806E21950400831E219506A
:1002F00046082EE319502F080CE21950390809E37B
:1003000015381A6EF00E1A16300E195C1A24156E76
:1003100009D015381A6EF00E1A16410E195C0A0F24
:100320001A24156E1850182A036A1324E96E145003
:100330000320EA6EEFCF19F01950600806E2195059
:100340007A0803E31950DF0B01D01950196EC6D794
:10035000162C04D017500A0801E1156C15C001F0E5
:1003600055EF02F0200E14A8300E156E13C000F0E9
:1003700013AE08D0001E002A00C013F02D0E156E1B
:10038000148E1480015013C019F0640E1A6EE2DE50
:1003900000C013F0300E0124166E13C019F00A0EBF
:1003A0001A6ED8DE300E0024186E300E0124176E3F
:1003B00015C000F0300E165C04E0148214BE1484E4
:1003C00012D015C016F0200E156E300E175C04E02A
:1003D000148014BE148207D0D8A4148004E116C07F
:1003E00017F0200E166E14B405D014B207D014B056
:1003F00009D00CD015509EA8FED7AD6E16509EA801
:10040000FED7AD6E17509EA8FED7AD6E18509EA8B1
:10041000FED7AD6E5CEF02F0F86AD09EB8960C0E77
:10042000AF6EA20EAC6E900EAB6E00000000C1501D
:10043000C00B0F09C16E070EB46E046A056A0A90FC
:1004400009D616D601524AE02CDE01C00DF029DE95
:1004500001C00EF026DE01C00BF023DE01C00CF05F
:1004600020DE01C00FF00AA006D0040EF66E000ECA
:10047000F76E5FDE32D00E500D240B240C240F5C7F
:1004800027E10DC019F00A0E1A6E64DE300E012449
:10049000106E0DC019F00A0E1A6E5CDE300E0024CC
:1004A000116E146A100E136E8FD601C012F012C0B6
:1004B00013F0180E146E56D71250270803E39590C8
:1004C0008C8005D01250540802E295908C9005D093
:1004D000100EF66E000EF76E2CDE05D0220EF66EB4
:1004E000000EF76E26DE040E136EFA0E146E9FDDFC
:0804F000132EFBD7A4D7030073
:020000040030CA
:0E00000000C21E1E008781000FC00FE00F40DF
:00000001FF
;PIC18F4520
;CRC=8C13  CREATED="15-nov-20 18:44"
